:100000000C946B070C9488070C9488070C94880751
:100010000C9488070C9488070C9488070C94880724
:100020000C9488070C9488070C9488070C94880714
:100030000C9488070C9488070C946D0C0C9488071A
:100040000C9488070C9414090C94B7080C94790844
:100050000C9488070C94C71E0C9488070C9488078E
:100060000C9488070C9488070000891112239B3296
:100070002446AD573665BF74488CC19D5AAFD3BE78
:100080006CCAE5DB7EE9F7F88110080193331A2288
:10009000A5562C47B7753E64C99C408DDBBF52AE58
:1000A000EDDA64CBFFF976E802218B301002991368
:1000B0002667AF763444BD554AADC3BC588ED19F38
:1000C0006EEBE7FA7CC8F5D983310A209112180348
:1000D000A7772E66B5543C45CBBD42ACD99E508F18
:1000E000EFFB66EAFDD874C904428D5316619F7018
:1000F0002004A9153227BB364CCEC5DF5EEDD7FCF8
:100100006888E1997AABF3BA85520C4397711E6007
:10011000A1142805B3373A26CDDE44CFDFFD56ECD7
:10012000E9986089FBBB72AA06638F7214409D51E7
:100130002225AB343006B9174EEFC7FE5CCCD5DDB7
:100140006AA9E3B8788AF19B87730E6295501C41C7
:10015000A3352A24B1163807CFFF46EEDDDC54CD97
:10016000EBB962A8F99A708B088481951AA793B6A7
:100170002CC2A5D33EE1B7F04008C919522BDB3A97
:10018000644EED5F766DFF7C899400859BB712A667
:10019000ADD224C3BFF136E0C1184809D33B5A2A77
:1001A000E55E6C4FF77D7E6C0AA583B41886919747
:1001B0002EE3A7F23CC0B5D14229CB38500AD91B57
:1001C000666FEF7E744CFD5D8BB502A49996108727
:1001D000AFF326E2BDD034C1C3394A28D11A580B37
:1001E000E77F6E6EF55C7C4D0CC685D71EE597F4F7
:1001F0002880A1913AA3B3B2444ACD5B5669DF7817
:10020000600CE91D722FFB3E8DD604C79FF516E4E6
:10021000A9902081BBB332A2C55A4C4BD7795E68F6
:10022000E11C680DF33F7A2E0EE787F61CC495D5C6
:100230002AA1A3B03882B193466BCF7A5448DD59D6
:10024000622DEB3C700EF91F8FF706E69DD414C5A6
:10025000ABB122A0B9923083C77B4E6AD5585C49B6
:10026000E33D6A2CF11E780F42617564726174651A
:10027000206F666620627920256C646270730A00C4
:10028000756E6974203C205345525F434E540062A2
:100290006572746F732F6370752F6176722F64723D
:1002A000762F7365725F6D6567612E630073697A7F
:1002B00065203E203100626572746F732F73747213
:1002C0007563742F6669666F6275662E6800666472
:1002D0002D3E68772D3E72786275666665720062A3
:1002E0006572746F732F6472762F7365722E63005C
:1002F00066642D3E68772D3E747862756666657219
:1003000000626572746F732F6472762F7365722E3C
:1003100063002166642D3E69735F6F70656E0062D5
:100320006572746F732F6472762F7365722E63001B
:10033000756E6974203C20636F756E746F662873E8
:1003400065725F68616E646C6573290062657274C2
:100350006F732F6472762F7365722E6300706F72E5
:10036000742D3E69735F6F70656E00626572746FA5
:10037000732F6472762F7365722E630066642D3E50
:100380005F74797065203D3D204B46545F53455264
:1003900049414C00626572746F732F6472762F73DB
:1003A00065722E68002174696D65725F696E69748B
:1003B00069616C697A656400626572746F732F6439
:1003C00072762F74696D65722E63002674696D658F
:1003D000722D3E6C696E6B00626572746F732F6470
:1003E00072762F74696D65722E630066642D3E729D
:1003F00065616400626572746F732F696F2F6B663D
:10040000696C652E680066642D3E777269746500BC
:10041000626572746F732F696F2F6B66696C652EDE
:1004200068006275665F706F696E746572203E3D2C
:100430002062756600626572746F732F6D776172EA
:10044000652F666F726D617477722E630066642D1E
:100450003E5F74797065203D3D204B46545F4146B8
:10046000534B00626572746F732F6E65742F6166F3
:10047000736B2E680074696D65725F696E6974696B
:10048000616C697A656400626572746F732F6E6562
:10049000742F6166736B2E630080818384868789E5
:1004A0008A8C8E8F9192949597989A9B9D9EA0A2EC
:1004B000A3A5A6A7A9AAACADAFB0B2B3B5B6B7B95C
:1004C000BABCBDBEC0C1C2C4C5C6C8C9CACBCDCEE8
:1004D000CFD0D2D3D4D5D6D7D9DADBDCDDDEDFE09E
:1004E000E1E2E3E4E5E6E7E8E9EAEAEBECEDEEEE8B
:1004F000EFF0F1F1F2F3F3F4F5F5F6F6F7F8F8F9B9
:10050000F9FAFAFAFBFBFCFCFCFDFDFDFDFEFEFE2C
:10051000FEFEFFFFFFFFFFFFFF6368616E6E656C0D
:1005200000626572746F732F6E65742F6178323557
:100530002E630063747800626572746F732F6E654A
:10054000742F617832352E63006973616C6E756D3E
:10055000286329207C7C2063203D3D202720270024
:10056000626572746F732F6E65742F617832352EE9
:1005700063006374782D3E6372635F6F7574203D12
:100580003D20415832355F4352435F434F525245FD
:10059000435400626572746F732F6E65742F6178B7
:1005A00032352E6300706174685F6C656E203E3D6D
:1005B000203200626572746F732F6E65742F6178DC
:1005C00032352E63007061746800626572746F73F7
:1005D0002F6E65742F617832352E630066642D3E70
:1005E000636C65617265727200626572746F732FFD
:1005F000696F2F6B66696C652E680066642D3E65B9
:1006000072726F7200626572746F732F696F2F6BF5
:1006100066696C652E680025733A204F6E6C7920F0
:100620006672616D657320776974686F7574206C8C
:1006300061796572332070726F746F636F6C2061C3
:1006400072652068616E646C65642C20676F74202D
:100650005B253032585D0A0025733A204F6E6C7965
:10066000205549206672616D65732061726520684E
:10067000616E646C65642C20676F74205B2530327A
:10068000585D0A0025733A204368616E6E656C20E0
:100690006572726F72205B253034785D0A00636882
:1006A000203C3D2035004D6963726F4150525332FA
:1006B0002F68772F68775F6166736B2E63002D2D2F
:1006C0002D2D2D2D2D2D2D2D2D2D2D2D2D2D2D2D5A
:1006D0002D2D2D2D2D2D2D2D2D2D2D2D2D2D2D2D4A
:1006E0000A00482020202020202020205072696EFF
:1006F0007420636F6E66696775726174696F6E0AE4
:100700000043202020202020202020436C6561729F
:1007100020636F6E66696775726174696F6E0A0037
:100720004C2020202020202020204C6F616420635A
:100730006F6E66696775726174696F6E0A00532027
:1007400020202020202020205361766520636F6EBA
:1007500066696775726174696F6E0A00563C312F65
:10076000303E2020202053696C656E74206D6F64CC
:1007700065206F6E2F6F66660A0A00763C312F3057
:100780003E20202020566572626F7365206D6F6475
:1007900065206F6E2F6F66660A0070693C312F30DE
:1007A0003E2020205072696E7420494E464F206FC3
:1007B0006E2F6F66660A0A00706D3C312F303E2046
:1007C00020205072696E742044415441206F6E2F76
:1007D0006F66660A0070703C312F303E202020503A
:1007E00072696E742050415448206F6E2F6F666698
:1007F0000A0070643C312F303E2020205072696E18
:100800007420445354206F6E2F6F66660A00707315
:100810003C312F303E2020205072696E742053529C
:1008200043206F6E2F6F66660A006D613C312F307A
:100830003E2020204175746F6D61746963206D6581
:1008400073736167652041434B206F6E2F6F66663F
:100850000A0A006D723C737369643E20205265740D
:100860007279206C617374206D6573736167650ABA
:10087000006D733C737369643E2020536574206D72
:1008800065737361676520726563697069656E740D
:1008900020535349440A006D633C63616C6C3E20F5
:1008A00020536574206D657373616765207265639D
:1008B000697069656E742063616C6C7369676E0A38
:1008C000006C743C732F613E20202053656C65637F
:1008D000742073796D626F6C207461626C6520287E
:1008E0007374616E646172642F616C7465726E61A1
:1008F0007465290A0A006C733C73796D3E202020D0
:1009000053656C6563742073796D626F6C0A006C5B
:10091000643C302D393E20202053657420616E7474
:10092000656E6E6120646972656374697669747955
:1009300020696E666F0A006C673C302D393E2020BE
:100940002053657420616E74656E6E612067616905
:100950006E20696E666F0A006C683C302D393E204F
:10096000202053657420616E74656E6E6120686529
:100970006967687420696E666F0A006C703C302D80
:10098000393E20202053657420545820706F7765BD
:100990007220696E666F0A006C6C6F3C4C4F4E3E65
:1009A0002020536574206C61746974756465202817
:1009B0004E4D45412D666F726D61742C2065672028
:1009C00030373230312E373557290A006C6C613C94
:1009D0004C41543E2020536574206C6174697475D9
:1009E000646520284E4D45412D666F726D61742CF3
:1009F00020656720343930332E35304E290A007394
:100A0000323C737369643E20205365742050415416
:100A1000483220535349440A0A0073313C737369C6
:100A2000643E202053657420504154483120535374
:100A300049440A0073643C737369643E2020536523
:100A4000742064657374696E6174696F6E205353AA
:100A500049440A0073633C737369643E2020536504
:100A60007420796F757220535349440A00323C63F5
:100A7000616C6C3E202020536574205041544832F4
:100A80002063616C6C7369676E0A0A00313C6361B4
:100A90006C6C3E2020205365742050415448312016
:100AA00063616C6C7369676E0A00643C63616C6CB3
:100AB0003E2020205365742064657374696E6174F0
:100AC000696F6E2063616C6C7369676E0A00633CCA
:100AD00063616C6C3E20202053657420796F7572C1
:100AE0002063616C6C7369676E0A00233C6D7367E9
:100AF0003E2020202053656E642041505253206DCB
:100B00006573736167650A0A00403C636D743E203B
:100B100020202053656E64206C6F636174696F6E72
:100B2000207570646174652028636D74203D206FAA
:100B30007074696F6E616C20636F6D6D656E742982
:100B40000A00213C646174613E20202053656E647C
:100B500020726177207061636B65740A005365725F
:100B600069616C20636F6D6D616E64733A0A002D6C
:100B70002D2D2D2D2D2D2D2D2D2D2D2D2D2D2D2DA5
:100B80002D2D2D2D2D2D2D2D2D2D2D2D2D2D2D2D95
:100B90002D0A0053796D626F6C3A2025630A005369
:100BA000796D626F6C207461626C653A2073746158
:100BB0006E646172640A0053796D626F6C207461B7
:100BC000626C653A20616C7465726E6174650A00CE
:100BD00044697265637469766974793A2025640A98
:100BE000004761696E3A2025640A004865696768B4
:100BF000743A2025640A00506F7765723A202564A4
:100C00000A004175746F2D61636B206D65737361AC
:100C10006765733A204F66660A004175746F2D61EF
:100C2000636B206D657373616765733A204F6E0A5D
:100C30000050617468323A20252E36732D25640ADF
:100C40000050617468313A20252E36732D25640AD0
:100C50000044657374696E6174696F6E3A20252E65
:100C600036732D25640A0043616C6C7369676E3AB4
:100C700020252E36732D25640A00436F6E66696742
:100C800075726174696F6E3A0A002D2D2D2D2D2D10
:100C90002D2D2D2D2D2D2D2D2D2D2D2D2D2D2D2D84
:100CA0002D2D2D2D2D2D2D2D2D2D2D2D0A00426577
:100CB00072744150525320312E302D7225642F66AC
:100CC00025642F4247354848500A00310A005072C7
:100CD000696E742025732064697361626C65640DAC
:100CE0000A005072696E7420257320656E61626C13
:100CF00065640D0A00310A004D7367206175746FD9
:100D00002D61636B2064697361626C65640A0031F4
:100D10000A004D7367206175746F2D61636B2065E8
:100D20006E61626C65640A00310A00526574726912
:100D30006564206C617374206D73670A00310A006A
:100D40000A002D25640A004D736720726370743A9F
:100D500020252E367300310A000A002D25640A0072
:100D60004D736720726370743A20252E36730031FC
:100D70000A0053656C656374656420737464207342
:100D8000796D626F6C207461626C650A0053656CEA
:100D9000656374656420616C742073796D626F6C37
:100DA000207461626C650A0053796D626F6C207308
:100DB000657420746F2025630A004469722073658E
:100DC0007420746F2025646465670A00446972208A
:100DD00073657420746F206F6D6E690A00310A00AC
:100DE000310A004761696E2073657420746F202595
:100DF0006464420A00310A00416E74656E6E6120BF
:100E00006865696768742073657420746F20256C49
:100E1000646D204141540A00310A00506F776572B9
:100E20002073657420746F202564770A00310A00EE
:100E30004C6F6E6774697475646520736574207493
:100E40006F20252E39730A00310A004C61746974D1
:100E50007564652073657420746F20252E38730ABD
:100E6000006275665F706F696E746572203E3D202A
:100E700062756600626572746F732F6D776172655B
:100E80002F666F726D617477722E6300203D203083
:100E90007825700A00496E76616C696420707472FE
:100EA0003A20003A2000417373657274696F6E20B6
:100EB0006661696C65643A20000A0A2A2A2A20427F
:100EC0006552544F532044424720535441525420BA
:100ED0002A2A2A0A000011241FBECFEFD8E0DEBF65
:100EE000CDBF12E0A0E0B1E0E6EDF0E702C0059072
:100EF0000D92AC37B107D9F727E0ACE7B2E001C0FB
:100F00001D92A137B207E1F70E94E81D0C946938E1
:100F10000C9400001092C00088E98093C1000895ED
:100F20001092C1000895FC012285211105C021E025
:100F3000228788EB8093C1000895E2ECF0E0808185
:100F400094E0660F771F9A95E1F78F7C862B80835C
:100F500008959FB7F89484B1886284B99FBF8FB712
:100F6000F894229A8FBF8FB7F89424988FBF80EDA2
:100F70008CBD8CB581608CBD8DB58E7F8DBD089587
:100F80001CBC9FB7F89484B1837C84B99FBF08953B
:100F900008950895FC01828508956FB7F894DC01E7
:100FA0001A962C911A97211120C0E0916507F091B3
:100FB0006607478D50A121A132A142175307A9F01E
:100FC00021E01A962C93A78DB0A185A196A1A81710
:100FD000B90719F483A194A104C0A78DB0A1CD01D4
:100FE000019690A3878F8C918EBD6FBF08954F920D
:100FF0005F926F927F928F929F92AF92BF92CF92A9
:10100000DF92EF92FF92CF93DF934A015B01CB0116
:10101000BA019695879577956795605C7D4B804F73
:101020009F4FA50194010E946D36E9012197442745
:10103000552760E472E48FE090E00E944936750124
:101040006401C61AD70AE80AF90A26013701F7FE31
:1010500007C04424552432014C185D086E087F08EF
:10106000C501B40121E230E040E050E00E946D365D
:10107000241535054605570580F4FF92EF92DF925F
:10108000CF9288E692E09F938F930E9464330F90F3
:101090000F900F900F900F900F90D093C500C093BA
:1010A000C400DF91CF91FF90EF90DF90CF90BF9081
:1010B000AF909F908F907F906F905F904F9008952A
:1010C000CF93DF93EC018230910544F048E953E07F
:1010D0006FE872E080E892E00E94F3332BE02C9FEF
:1010E000C0012D9F900D11248A5F9E4FDF91CF91FB
:1010F00008951F920F920FB60F9211242F933F93D2
:101100008F939F93AF93BF93EF93FF93E091630708
:10111000F0916407278D30A181A192A1281739078A
:1011200031F488E98093C1001092100113C0A78D9B
:10113000B0A185A196A1A817B90719F483A194A11C
:1011400004C0A78DB0A1CD01019690A3878F8C918B
:101150008093C600FF91EF91BF91AF919F918F91C6
:101160003F912F910F900FBE0F901F9018951F92D7
:101170000F920FB60F9211242F933F934F935F93CB
:101180008F939F93AF93BF93EF93FF93E091630788
:10119000F091640797A58091C0008871892B87A77B
:1011A0005091C60027A130A583A594A5281739071B
:1011B00039F421A532A585A596A52817390761F030
:1011C00021A532A587A190A5019741E028173907ED
:1011D00009F040E0842F01C081E080FF04C087A5B2
:1011E000816087A712C0A1A5B2A55C9321A532A5F5
:1011F00085A596A52817390719F483A594A503C0DA
:1012000081A592A5019692A781A7FF91EF91BF9129
:10121000AF919F918F915F914F913F912F910F903F
:101220000FBE0F901F9018951F920F920FB60F923E
:1012300011242F933F934F938F939F93AF93BF931B
:10124000EF93FF93E0916507F091660727A130A522
:1012500083A594A52817390739F421A532A585A5BA
:1012600096A52817390761F021A532A587A190A579
:10127000019741E02817390709F040E0842F01C0A9
:1012800081E080FD13C08EB5A1A5B2A58C9321A5E8
:1012900032A585A596A52817390719F483A594A525
:1012A00003C081A592A5019692A781A7E091650749
:1012B000F0916607278D30A181A192A128173907E7
:1012C00099F0A78DB0A185A196A1A817B90719F427
:1012D00083A194A104C0A78DB0A1CD01019690A3D4
:1012E000878F8C918EBD02C010921B01FF91EF91F0
:1012F000BF91AF919F918F914F913F912F910F90FF
:101300000FBE0F901F9018959FB7F89483E085BB90
:1013100014BC15BC82E084BD85B5836085BD16BC58
:1013200089EF87BDEEE6F0E080818E7F808380814B
:10133000826080839FBF0895CF93DF93EC01FB0110
:101340005FB7F894278D30A183A194A1281739079E
:10135000E9F421A132A185A196A128173907B1F49A
:1013600081E05FBF80FD11C04FB7F894A1A1B2A189
:10137000CC9321A132A185A196A12817390799F410
:1013800083A194A192A381A314C0DACF81A192A1D9
:10139000278D30A12150310941E08217930709F0D0
:1013A00040E0842FDECF21A132A12F5F3F4F32A337
:1013B00021A34FBF80A991A9DC01ED91FC9100848C
:1013C000F185E02D0995CE019927DF91CF91089500
:1013D000FC014FB7F89427A130A581A592A54FBF76
:1013E0002817390739F087A5897B79F024C087A5AC
:1013F000897BC9F74FB7F89427A130A581A592A59D
:101400004FBF2817390799F3EECF2FB7F894A7A14C
:10141000B0A585A596A5A817B90719F483A594A525
:1014200004C0A7A1B0A5CD01019690A787A38C9178
:101430002FBF90E008958FEF9FEF0895AF92BF9276
:10144000CF92DF92EF92FF920F931F93CF93DF9390
:101450007C015B016A01FC010089118922893389C1
:101460000C3412452544334541F04CEB50E064E91F
:1014700073E08CE793E00E94F333E50100E010E0B5
:101480000C151D0559F0C7010E94E8098F3F2FEF89
:10149000920721F00F5F1F4F8993F2CFC801DF91B0
:1014A000CF911F910F91FF90EF90DF90CF90BF9061
:1014B000AF900895AF92BF92CF92DF92EF92FF92DA
:1014C0000F931F93CF93DF937C015B016A01FC01B3
:1014D00000891189228933890C341245254433450A
:1014E00041F04CEB50E064E973E08CE793E00E943C
:1014F000F333E50100E010E00C151D0561F0899162
:10150000B701992787FD90950E949C09019619F0D3
:101510000F5F1F4FF1CFC801DF91CF911F910F9146
:10152000FF90EF90DF90CF90BF90AF900895CF9352
:10153000DF93EC01488959896A897B894C3452458B
:101540006544734541F04CEB50E064E973E08CE78F
:1015500093E00E94F3338FA590E0DF91CF9108953F
:10156000CF93DF93EC01488959896A897B894C3490
:1015700052456544734541F04CEB50E064E973E03B
:101580008CE793E00E94F3331FA6DF91CF9108957B
:10159000CF93DF93EC01488959896A897B894C3460
:1015A00052456544734549F04CEB50E064E973E003
:1015B0008CE793E00E94F33300C02F8D38A189A1FE
:1015C0009AA128173907C9F788A999A9DC01ED91D3
:1015D000FC910284F385E02D09958111EECF80E026
:1015E00090E0DF91CF910895EF92FF920F931F93B8
:1015F000CF93DF93EC018B016230710540F041E63F
:1016000051E06CE473E080E393E00E94F333F8016F
:10161000EE0FFF1FED59F84FD183C0838E8D8823C5
:1016200041F044E651E06FE173E082E193E00E9413
:10163000F33381E08E8F1D8F0C8FC8010E946008EC
:1016400099AB88ABDC0112968D919C911397892BF5
:1016500041F44CE651E061E073E080EF92E00E94DB
:10166000F333E8A9F9A984819581892B41F44DE6EA
:1016700051E06FED72E08EEC92E00E94F333E8A946
:10168000F9A9E680F78002811381B2E0EB16F1043C
:1016900040F441E251E066EB72E08DEA92E00E9494
:1016A000F3331CA30BA31AA309A318A30F8FC7011D
:1016B0000197800F911F9EA38DA3E8A9F9A9E0844B
:1016C000F18404811581E2E0EE16F10440F441E278
:1016D00051E066EB72E08DEA92E00E94F3331CA7C2
:1016E0000BA71AA709A718A70FA3C7010197800F77
:1016F000911F9EA78DA788A999A9DC01ED91FC9166
:101700000190F081E02DBE0109951FA6CE01DF9169
:10171000CF911F910F91FF90EF900895FC014FB76B
:10172000F89427A130A581A592A54FBF28173907A6
:10173000B1F02FB7F894A7A1B0A585A596A5A817D5
:10174000B90719F483A594A504C0A7A1B0A5CD013C
:10175000019690A787A38C912FBF90E008958FEFFB
:101760009FEF08956FB7F894FC0147A150A521A5FC
:1017700032A56FBF81E04217530709F480E0089556
:10178000DC01D0968D919C91D197DC01ED91FC917B
:101790000480F581E02D09944FB7F894FC0121A550
:1017A00032A530A727A34FBF08954FB7F894FC0187
:1017B00021A132A130A3278F4FBF0895CF93DF938C
:1017C000EC010E94CC0BCE01DF91CF910C94D50B94
:1017D000CF93DF93EC01488959896A897B894C341E
:1017E00052456544734541F04CEB50E064E973E0C9
:1017F0008CE793E00E94F3338E8D811108C04AE894
:1018000051E06BE673E08DE593E00E94F3331E8EAA
:10181000CE010E94C80A88A999A9DC01ED91FC912A
:101820000280F381E02D099519AA18AACE010E9421
:10183000DE0B80E090E0DF91CF910895CF93DF93AE
:10184000EC01488959896A897B894C345245654441
:10185000734541F04CEB50E064E973E08CE793E0B2
:101860000E94F333CE010E94E80B6C8D7D8DCE017A
:101870000E94F40ACE01DF91CF910895FC01CB01C3
:1018800022E3DF011D922A95E9F74CE452E565E475
:1018900073E5408B518B628B738B2EE13CE035837B
:1018A000248328EE3BE0378326832EE13AE0318320
:1018B00020832AE53AE03383228328EC3AE0338719
:1018C000228727E93AE03587248720EB3AE03787FB
:1018D0002687BC01CF010C94F40A1F920F920FB619
:1018E0000F9211240F931F932F933F934F935F9366
:1018F0006F937F938F939F93AF93BF93CF93DF9318
:10190000EF93FF938091670790916807A091690713
:10191000B0916A070196A11DB11D8093670790934E
:101920006807A0936907B0936A070BEA1AEBC091A6
:10193000FC02D091FD0288819981892BD1F18FB76A
:10194000F89440916707509168076091690770911A
:101950006A078FBF88859985AA85BB85481B590B67
:101960006A0B7B0B77FD25C0CF3FD10509F048F40A
:101970002BEC30E048ED53E06BEC73E0CE010E94BD
:101980000934EA81FB818881998191838083E88190
:10199000F9818A819B81938382831B821A821982B7
:1019A00018821B8B0A8BEC85FD85CE010C96099560
:1019B000BECFFF91EF91DF91CF91BF91AF919F91FA
:1019C0008F917F916F915F914F913F912F911F91D7
:1019D0000F910F900FBE0F901F90189580E093E02D
:1019E0009093FD028093FC021092FF021092FE027F
:1019F00010920103109200038CEF92E09093030386
:101A0000809302031092670710926807109269078B
:101A100010926A070E94840980916B07882341F025
:101A200041E951E068EB73E085EA93E00E94F3330B
:101A300081E080936B070895EF92FF920F931F93BD
:101A4000CF93DF931F92CDB7DEB77C018B018983E3
:101A5000DB0112968D919C911397892B41F44EE0F6
:101A600051E060E174E086E094E00E94F333D80135
:101A70001296ED91FC91139741E050E0BE016F5F2B
:101A80007F4FC8010995019719F4C701992702C032
:101A90008FEF9FEF0F90DF91CF911F910F91FF90EC
:101AA000EF9008950F931F93CF93DF931F92CDB7BD
:101AB000DEB78C01DC018D919C91892B41F442EFC2
:101AC00050E064EF73E08BEE93E00E94F333D801B3
:101AD000ED91FC9141E050E0BE016F5F7F4FC80186
:101AE0000995019719F4898190E002C08FEF9FEF6B
:101AF0000F90DF91CF911F910F910895CF93DF93B6
:101B0000CDB7DEB79E01275F3F4F4D815E816CE10F
:101B10007DE08F8198850E94AB0DDF91CF91089574
:101B20000F931F93CF93DF938C01EB01899188234F
:101B300059F0B801992787FD90950E941C0D8F3FA1
:101B40002FEF920799F702C080E090E0DF91CF91EC
:101B50001F910F9108952F923F924F925F926F9233
:101B60007F928F929F92AF92BF92CF92DF92EF922D
:101B7000FF920F931F93CF93DF93CDB7DEB7C45A75
:101B8000D1090FB6F894DEBF0FBECDBFFC01C85619
:101B9000DF4F79836883C859D040C656DF4F5983D9
:101BA0004883CA59D0405901C257DF4F1982188261
:101BB000CE58D0409E012F5F3F4FC957DF4F39832A
:101BC0002883C758D040AE014A575F4FC757DF4FF1
:101BD00059834883C958D0409F012F5F3F4FC45657
:101BE000DF4F39832883CC59D0408081853291F1F1
:101BF000882309F427C7C656DF4F68817981CA59FF
:101C0000D040C856DF4FE881F981C859D0400995C6
:101C1000C257DF4FC880D980CE58D040FFEFCF1ACF
:101C2000DF0AC557DF4FB982A882CB58D040C257D0
:101C3000DF4FD982C882CE58D040C557DF4FA88029
:101C4000B980CB58D040C456DF4FE881F981CC59D8
:101C5000D040C2CF8181853251F4AF014E5F5F4FDA
:101C6000C456DF4F59834883CC59D040C4CFC456A3
:101C7000DF4FA881B981CC59D040C256DF4F1882BE
:101C8000CE59D040C357DF4F1882CD58D040CF56E1
:101C9000DF4F1882C159D040CE56DF4F1882C2594B
:101CA000D040FD018D918B3209F45EC060F480322A
:101CB000E9F0833209F05FC031E0C357DF4F38836A
:101CC000CD58D040EECF8D3251F0803309F053C063
:101CD00041E0C256DF4F4883CE59D040E2CF21E0E9
:101CE000CF56DF4F2883C159D040DBCF392D3C7F01
:101CF000932ECE56DF4F4881C259D040942ACD56FC
:101D0000DF4F5881C359D04050FB92F8CF56DF4F78
:101D10008881C159D04080FB93F8C057DF4F98812C
:101D2000C059D04090FB94F8CC56DF4FE881C4599D
:101D3000D040E0FB95F8C357DF4FF881CD58D04035
:101D4000F0FB96F8CB56DF4F2881C559D04020FBD9
:101D500097F8892D837009F0A4CF81E0CE56DF4F2C
:101D60008883C259D0409DCF51E0CE56DF4F588373
:101D7000C259D04096CFC357DF4F9881CD58D0403D
:101D8000C056DF4F9883C05AD0408A3229F0DF0115
:101D9000212C312C2AE013C0C5010296D5012D90CB
:101DA0003C9037FE09C0319421943108B1E0CF5600
:101DB000DF4FB883C159D04031965C0112C0FD019C
:101DC0008D9190ED980F9A3060F4F1012E9F1001E3
:101DD0002F9F300C1124F0E32F1A3108280E311CEC
:101DE000EECFCF56DF4F2881C159D040222329F0B2
:101DF000C256DF4F1882CE59D04080818E3221F5F5
:101E000081818A3231F0DF011196612C712C2AE038
:101E100009C0D5016D907C90329695012E5F3F4FA1
:101E2000590115C0FD018D9190ED980F9A3078F40D
:101E3000A301249F3001259F700C112450E3651AE3
:101E40007108680E711CEECF66246A94762CDF014F
:101E50008D918836D9F018F48C3459F01FC08C3627
:101E600041F08A37D9F4C057DF4F1882C059D040AB
:101E700006C081E0C057DF4F8883C059D040FD01C4
:101E8000CC56DF4F1882C459D04012C0FD0191E0FA
:101E9000CC56DF4F9883C459D04005C0CC56DF4F95
:101EA0001882C459D040C057DF4F1882C059D04063
:101EB000DF011196C456DF4FB983A883CC59D040B7
:101EC0008080B5E68B1609F408C2B815ECF023E55E
:101ED000821609F453C0281564F035E4831609F41A
:101EE000FCC147E4841609F4F0C1882009F465C4F4
:101EF0002AC053E6851671F158150CF4CBC088E55D
:101F0000881609F48DC01FC090E7891609F471C0C6
:101F1000981564F0A7E68A1609F4D7C18A160CF45E
:101F2000DBC1B9E68B1609F4B5C00DC0E5E78E1626
:101F300009F476C0F8E78F1609F46DC023E7821222
:101F400002C0D12C1DC0C557DF4FB982A882CB5823
:101F5000D0403FC4A5014E5F5F4FC557DF4F598347
:101F60004883CB58D040D5018C918983D12C8E01E8
:101F70000E5F1F4FFE0131965F0139C4DD24D394FB
:101F800095012E5F3F4FC557DF4F39832883CB58CC
:101F9000D040D501AD90BC90A114B10421F4A0E2D1
:101FA000AA2EA1E0BA2E77FE04C0F0E16F2EF7E270
:101FB0007F2E8501DD20C1F0F8018491882309F48A
:101FC00016C4C8018A199B09861597050CF00FC421
:101FD0000F5F1F4FF1CFC8018A199B09861597051E
:101FE0000CF005C40F5F1F4FD8018C918111F3CF06
:101FF000FEC3F5013296C557DF4FF983E883CB580E
:10200000D040D5016D917C9180E090E0E8E7EE2E24
:10201000E1E0FE2E2BC078E8E72E71E0F72E04C039
:1020200068E7E62E61E0F62EC057DF4FB881C05951
:10203000D040BB2371F0F5013496C557DF4FF983CB
:10204000E883CB58D040D5016D917D918D919C91C5
:102050000DC0C5010296F50160817181C557DF4F42
:1020600099838883CB58D04080E090E021E0CD5622
:10207000DF4F2883C359D04035E7831205C0CD56C2
:10208000DF4F1882C359D040CE56DF4F1882C25955
:10209000D04042C0C057DF4F4881C059D040442390
:1020A00071F0C5010496C557DF4F99838883CB58DB
:1020B000D040D5016D917D918D919C910FC0F5011E
:1020C0003296C557DF4FF983E883CB58D040D5010E
:1020D0006D917C91882777FD8095982F97FF13C08D
:1020E00090958095709561957F4F8F4F9F4FCD56FE
:1020F000DF4F1882C359D040B2E0CE56DF4FB883CD
:10210000C259D04005C0CD56DF4F1882C359D040C8
:1021100058E7E52E51E0F52EE1E0CB56DF4FE8839E
:10212000C559D040611571058105910529F4CB563B
:10213000DF4F1882C559D0406114710441F4CB5669
:10214000DF4FF881C559D040FF2309F47CC0CD563C
:10215000DF4F2881C359D0408E010A571F4F2130CD
:10216000A9F02AE030E040E050E00E946D36F7012F
:10217000E60FF71F8081D8018E938D01B901CA0146
:10218000611571058105910561F715C0FB01EF70BF
:10219000FF27EE0DFF1D2081F80122938F0144E0FF
:1021A00096958795779567954A95D1F7611571054D
:1021B0008105910559F777FE49C0C256DF4FF88176
:1021C000CE59D040FF2309F441C0292D2C7F922EF7
:1021D000CE56DF4F3881C259D040932ACD56DF4FBB
:1021E0004881C359D04040FB92F8CF56DF4F588109
:1021F000C159D04050FB93F8C057DF4F8881C05978
:10220000D04080FB94F8CC56DF4F9881C459D04021
:1022100090FB95F8C357DF4FA881CD58D040A0FB65
:1022200096F8CB56DF4FB881C559D040B0FB97F830
:10223000292D237081E090E011F480E090E03101DD
:10224000681A790A03C08E010A571F4FC757DF4F1C
:1022500088819981C958D040801B910BF80120E3F7
:102260005F01861597051CF422930196F9CFC35799
:10227000DF4FE881CD58D040EE23A1F0CB56DF4FA1
:10228000F881C559D040FF2369F0882D8F7D8835AE
:1022900049F4F5013197808222E0A21AB10880E367
:1022A000D5018C93C957DF4FE881F981C758D040D9
:1022B000AE16BF0608F095C247EB52E065E374E046
:1022C00082E294E00E94F3338CC28A948A9411E0F3
:1022D0006114710449F002C0812C10E077FE07C040
:1022E00026E0622E712C03C066246394712C950144
:1022F0002C5F3F4FC557DF4F39832883CB58D040E1
:10230000D501CD90DD90ED90FC9020E030E0A9016A
:10231000C701B6010E94933487FF0AC0F7FAF09410
:10232000F7F8F094B2E0CE56DF4FB883C259D040F0
:10233000C156DF4F1883CF59D040AA24A394B12CA3
:10234000AC0EBD1EA20CB31C20E030E040E85FE301
:10235000C701B6010E94E23587FD32C0412C512CE5
:1023600027EB33E44AEB51E5C701B6010E94E235A1
:1023700087FD0EC029EF32E045E150E5C701B60107
:102380000E9497346B017C01EAE04E0E511CE8CFAD
:1023900020E030E040E251E4C701B6010E94E2359E
:1023A00087FD49C020E030E040E251E4C701B601BA
:1023B0000E9497346B017C01FFEF4F1A5F0AE8CF50
:1023C00020E030E0A901C701B6010E949334412CFE
:1023D000512C882381F12FEF36EE4BED5EE2C701E1
:1023E000B6010E949334181674F029EF32E045E1EB
:1023F00050E5C701B6010E94E6356B017C012AE079
:10240000421A5108E8CF20E030E040E85FE3C7011E
:10241000B6010E94933487FF0EC020E030E040E216
:1024200051E4C701B6010E94E6356B017C0131E041
:10243000431A5108E8CF112301F14614570444F41C
:102440004CEF44164FEF54061CF064187508812CAD
:1024500051E0651A710881E0C357DF4F9881CD586C
:10246000D0409827C156DF4F9883CF59D040A1E084
:10247000C357DF4FA883CD58D04081104BC057FEC3
:102480003DC080E3E1E0F0E0EC0FFD1FE20DF31D45
:102490008083F5016114710459F4C357DF4FB8818B
:1024A000CD58D040B11104C0319680E090E006C014
:1024B00032968EE2D50111968C93C30192012F5F63
:1024C0003F4F280F391F40E38F018217930729F0F0
:1024D000009719F041930197F7CF9301209530951C
:1024E000421653060CF4D1C03C01E1E0F0E0CA56BC
:1024F000DF4FF983E883C659D0405CC022273327D9
:1025000024193509CA56DF4F39832883C659D0406C
:10251000850150C08501CA56DF4F19821882C659FD
:10252000D04048C0C701B6010E94FF34CF55DF4FED
:10253000688379838A839B83C15AD040CF55DF4F0C
:1025400048815981C15AD040BA01882777FD8095CA
:10255000982F0E9432359B01AC01C701B6010E9441
:102560002E3420E030E040E251E40E94E6356B0179
:102570007C0198012F5F3F4FCF55DF4F8881C15AB3
:10258000D040805DD8018C93CA56DF4F88819981F5
:10259000C659D0400196CA56DF4FE881F981C65925
:1025A000D040EF2B91F0CA56DF4F99838883C659EC
:1025B000D0408901CA56DF4F28813981C659D040A1
:1025C000621673060CF0AECF14C06114710439F4B6
:1025D000C357DF4FF881CD58D040FF2339F0980121
:1025E0002E5F3F4FEEE2D8011196EC9381E090E030
:1025F000DACF20E030E040EA50E4C701B6010E94A3
:10260000E23587FD42C0F80181E090E030E322919D
:102610002E3251F0820F8A3321F0808380E090E0E7
:1026200003C0308381E090E0AE16BF0680F3892BB3
:1026300061F18820B9F0F801AE16BF0678F4DF0129
:102640008E919D018E3239F4CF010297DC018C917D
:102650008083F90101C080833197EECFBFEF4B1A21
:102660005B0A0BC00F5F1F4FF801AE16BF0628F4C0
:10267000DF018E918083FD01F8CF81E3E1E0F0E09E
:10268000EC0FFD1FE20DF31D8083C156DF4FE88183
:10269000CF59D040EE2349F0F8018291803311F4F4
:1026A0008F01FACF8E3209F48F018820B1F1D80161
:1026B0008C92C801029657FE07C02DE211962C930A
:1026C00051944194510803C02BE2F80121838C01FD
:1026D000065F1F4F20E030E02F5F3F4FF80131963B
:1026E000C2016AE070E00E945936805DD8018C9387
:1026F0002B016115710511F08F01EECF22303105EC
:10270000DCF3E21BF30B199781918E932150310971
:1027100012161306CCF309501109C256DF4FB881C7
:10272000CE59D040BB2309F461C0E92DEC7F9E2E29
:10273000CE56DF4FF881C259D0409F2ACD56DF4F89
:102740002881C359D04020FB92F8CF56DF4F388103
:10275000C159D04030FB93F8C057DF4F4881C05972
:10276000D04040FB94F8CC56DF4F5881C459D0403C
:1027700050FB95F8C056DF4F8881C05AD04080FB8F
:1027800096F8CB56DF4F9881C559D04090FB97F80B
:10279000292D237081E090E011F480E090E0910118
:1027A000281B390BF50140E35F01C8018E1B9F0B0D
:1027B00082179307DCF44293F7CFC557DF4FB982F6
:1027C000A882CB58D040C456DF4FF983E883CC5958
:1027D000D040D12C0FE111E08CE1A82E81E0B82E81
:1027E00006C0D12C8E010A571F4F01C0D12C0A19E7
:1027F0001B09201631060CF440C0A92DAC7F9A2E7F
:10280000CE56DF4FB881C259D0409B2ACD56DF4FFC
:10281000E881C359D040E0FB92F8CF56DF4FF881F2
:10282000C159D040F0FB93F8C057DF4F2881C05901
:10283000D04020FB94F8CC56DF4F3881C459D040AB
:1028400030FB95F8C056DF4F4881C05AD04040FB5E
:1028500096F8CB56DF4F5881C559D04050FB97F8BA
:102860007101E01AF10A292D237081E090E011F442
:1028700080E090E0E81AF90A02C0E12CF12CCF5672
:10288000DF4F8881C159D040811122C031E0E31A65
:10289000F108F7FC1DC0C656DF4F68817981CA591F
:1028A000D04080E2C856DF4FE881F981C859D04056
:1028B0000995C257DF4F28813981CE58D0402F5F0C
:1028C0003F4FC257DF4F39832883CE58D040DECFE9
:1028D000492D4C7F942ECE56DF4F5881C259D0409F
:1028E000952ACD56DF4F8881C359D04080FB92F89E
:1028F000CF56DF4F9881C159D04090FB93F8C05715
:10290000DF4FA881C059D040A0FB94F8CC56DF4FD0
:10291000B881C459D040B0FB95F8C056DF4FE8816C
:10292000C05AD040E0FB96F8CB56DF4FF881C5592E
:10293000D040F0FB97F8892D837001F1813011F4BC
:102940008BE201C08DE2C656DF4F68817981CA599A
:10295000D040C856DF4FE881F981C859D040099569
:10296000C257DF4F28813981CE58D0402F5F3F4F6B
:10297000C257DF4F39832883CE58D040D1100AC0C8
:102980003501C257DF4FA880B980CE58D040A61875
:10299000B70821C0C257DF4FC880D980CE58D04079
:1029A000AC18BD080150110917FD2DC0F501EC0D43
:1029B000FD1D8491C656DF4F68817981CA59D04088
:1029C000C856DF4FE881F981C859D0400995FFEF1B
:1029D000CF1ADF0AE7CF6501C60CD71C01501109D9
:1029E00017FD11C0C656DF4F68817981CA59D040A2
:1029F000D3018D913D01C856DF4FE881F981C85957
:102A0000D0400995E8CFCF56DF4FF881C159D0406B
:102A1000FF2309F40CC921E0E21AF108F7FC07C909
:102A2000C656DF4F68817981CA59D04080E2C856C6
:102A3000DF4FE881F981C859D0400995FFEFCF1ADF
:102A4000DF0AE9CFC257DF4F88819981CE58D04045
:102A5000CC55DF4F0FB6F894DEBF0FBECDBFDF9170
:102A6000CF911F910F91FF90EF90DF90CF90BF908B
:102A7000AF909F908F907F906F905F904F903F901E
:102A80002F9008958F929F92AF92BF92EF92FF92F4
:102A90000F931F93CF93DF93EC017B018A01888909
:102AA0009989AA89BB898B349345A644B14441F0E6
:102AB00046ED50E063E674E08DE494E00E94F33369
:102AC000F701C701800F911FE817F90771F4CF01D3
:102AD0008E199F09DF91CF911F910F91FF90EF9079
:102AE000BF90AF909F908F9008956FB7F8944EA9C4
:102AF0005FA928AD39AD6FBF4217530741F32FB718
:102B0000F8948090670790906807A0906907B0904C
:102B10006A072FBF6FB7F8944EA95FA928AD39ADEA
:102B20006FBF42175307A9F44FB7F8940091670796
:102B3000109168072091690730916A074FBF081903
:102B400019092A093B09101611061206130614F773
:102B5000BECF4FB7F894AEA9BFA92CAD3DADA2171B
:102B6000B30719F42AAD3BAD05C0AEA9BFA99D01BD
:102B70002F5F3F4F3FAB2EAB2C914FBF2193A4CF84
:102B80002F923F924F925F926F927F928F929F927D
:102B9000AF92BF92CF92DF92EF92FF920F931F936B
:102BA000CF93DF9300D000D0CDB7DEB79C838B836B
:102BB0008B013A01FC0180899189A289B3898B3408
:102BC0009345A644B14441F046ED50E063E674E01D
:102BD0008DE494E00E94F3331A830983600E711E22
:102BE000EB81FC81E258FF4F332433944424439417
:102BF0002B813C812D523F4F80E4882E912CAB805D
:102C0000BC808AEDA80EB11C45E350E06B817C814D
:102C100064527F4F98E0E92EF12C89819A818615C4
:102C2000970509F45BC05FB6F894C080D1808481B9
:102C30009581C816D90639F4C280D38086819781E0
:102C4000C816D90669F0C280D3808081918101972E
:102C500022242394C816D90609F0212C822D01C004
:102C600081E05FBE80FDDFCFA981BA81DD90BA83AC
:102C7000A9835FB6F89482819381DC01DC92C280E3
:102C8000D38086819781C816D90619F484819581ED
:102C900003C0828193810196938382835FBED901B1
:102CA0008C91811114C0AB81BC8198969C928E92BC
:102CB000979796961C921E92959794961C92D9017E
:102CC0003C92D5014D935C932B9A40926C078FB741
:102CD000F894DB01ED92FC928FBF9FCF801B910B8C
:102CE0000F900F900F900F90DF91CF911F910F9148
:102CF000FF90EF90DF90CF90BF90AF909F908F901C
:102D00007F906F905F904F903F902F900895CF935A
:102D1000DF93EC01488959896A897B894B34534593
:102D20006644714441F046ED50E063E674E08DE4A2
:102D300094E00E94F333CD52DF4F88818111FDCFA3
:102D400080E090E0DF91CF910895CF93DF93EC0185
:102D5000488959896A897B894B3453456644714453
:102D600041F046ED50E063E674E08DE494E00E94AB
:102D7000F3332FB7F894CC52DF4F888199812FBF5E
:102D8000DF91CF910895CF93DF93EC014889598962
:102D90006A897B894B3453456644714441F046ED62
:102DA00050E063E674E08DE494E00E94F3338FB763
:102DB000F894CC52DF4F198218828FBFDF91CF91E8
:102DC0000895CF93DF93FC01DC01A853BF4F4D91D1
:102DD0005C911197EC01CA53DF4F59834883C1A519
:102DE000D2A587A590A9C817D90719F485A596A5D6
:102DF00004C0C1A5D2A5CE01019692A781A72881C2
:102E000026029001112435952795359527952D9308
:102E10003C93DF01A453BF4F8D919C911197EF011B
:102E2000C653DF4F9983888395958795840F951FA7
:102E3000820F931F8D939C93249631E018161906E8
:102E40000CF030E02881220F232B288397FF03C04A
:102E50009195819591094497DF01A053BF4F1816B2
:102E600019065CF48C918F5F8C938F3188F08EE122
:102E70008C9381E011978C930BC08C91882341F047
:102E800081508C93811104C0DF01A153BF4F1C926C
:102E9000A3A5B4A56C9323A534A587A590A928174D
:102EA000390719F485A596A503C083A594A50196B5
:102EB00094A783A79881892F86958927DF01AF5230
:102EC000BF4F80FF07C08C91803214F48F5F01C028
:102ED00081508C938C91885F8C9380340CF407C163
:102EE0008F738C93DF01AE52BF4F8C91880F977018
:102EF0002BEF290F233010F0933009F481608C936D
:102F00009C91892F8695892780958170DF01AA522F
:102F1000BF4F9C91990F892B8C938E37B9F526A9B9
:102F200037A982AD93AD2817390739F420AD31ADFB
:102F300084AD95AD2817390761F020AD31AD86A974
:102F400097A9019741E02817390709F040E0842F3D
:102F500001C081E080FDB4C0C0ADD1AD8EE78883F3
:102F600020AD31AD84AD95AD2817390719F482AD88
:102F700093AD03C080AD91AD019691AF80AF81E07C
:102F800013968C9313972D9A41E09FC0982F9F77AB
:102F90009F3721F413961C922D98A9C013969C91EB
:102FA0001397992309F4A3C0982F9F739E3309F4B4
:102FB0009EC080FF07C012968C911297806812966F
:102FC0008C93129711968C9111978F5F11968C9319
:102FD000119712969C911297883008F485C082E868
:102FE000890F823010F09B31B9F526A937A982AD3F
:102FF00093AD2817390739F420AD31AD84AD95ADC7
:103000002817390761F020AD31AD86A997A901973E
:1030100041E02817390709F040E0842F01C081E022
:1030200080FD14C0C0ADD1AD8BE1888320AD31AD42
:1030300084AD95AD2817390719F482AD93AD03C05F
:1030400080AD91AD019691AF80AF06C013961C92F2
:1030500013972D9840E001C041E026A937A982AD21
:1030600093AD2817390739F420AD31AD84AD95AD56
:103070002817390761F020AD31AD86A997A90197CE
:1030800051E02817390709F050E0852F01C081E091
:1030900080FD16C012968C911297C0ADD1AD888379
:1030A00020AD31AD84AD95AD2817390719F482AD47
:1030B00093AD03C080AD91AD019691AF80AF05C0D7
:1030C00013961C9213972D9840E012961C9212971B
:1030D00011961C9241110BC0EC52FF4F80819181DF
:1030E00081609183808303C0969512969C93DF91B3
:1030F000CF910895CF93DF93DC012D9A90968C9118
:1031000090978111C6C092968C91929781117CC044
:10311000FD01E258FF4F2081318182819381281780
:10312000390741F4ED01C452DF4F88819981892B21
:1031300009F443C093968C919397811103C09496A0
:103140001C92949781E093968C939397ED01C652CD
:10315000DF4F888199810097E9F420813181828154
:1031600093812817390721F422968881998112C00A
:10317000C081D18186819781C817D90719F48481CC
:10318000958104C0C081D181CE0101969183808355
:10319000888104C00197998388838EE791968C93E8
:1031A000919791968C9191978B3121F52081318166
:1031B000828193812817390741F42B9810926C076C
:1031C000AD52BF4F1C9280E08CC0C081D1818681FE
:1031D0009781C817D90719F48481958104C0C081EB
:1031E000D181CE01019691838083888191968C93C1
:1031F000919706C08E57823018F493961C9293973D
:1032000081E092968C93929793962C9193979796B0
:103210008D919C9198972223A9F094962C91949744
:10322000253080F094961C9294978034910519F47F
:1032300085E790E002C080E490E098969C938E939E
:10324000979723C092963C91929791962C91919743
:10325000232341F094968C9194978F5F94968C934E
:1032600094970FC094961C9294978034910519F40A
:1032700085E790E002C080E490E098969C938E935E
:103280009797330F92963C93929788E090968C9301
:1032900090979796ED91FC91989795968D919C912A
:1032A0009697E80FF91F9F01317096963C932E93E5
:1032B000959790968C919097815090968C93FF273C
:1032C000E038F10530F08FEF90E0AC014E1B5F0B62
:1032D000FA01E756FB4F84912F3F310511F008F0BA
:1032E00080952D98DF91CF910895EF92FF920F93E3
:1032F0001F93CF93DF93EC018B017A0180916B07D1
:10330000811108C04DE852E067E874E085E794E079
:103310000E94F3338EEDFE0111928A95E9F71D8F1D
:103320000C8FFF8EEE8E80E490E098A78FA3CE01E5
:10333000C1969EA78DA79CA78BA79AA789A704963D
:1033400098AB8FA79E01225C3F4F3BAF2AAF39AFAE
:1033500028AF3FAB2EAB885B9F4F9DAF8CAF24E077
:1033600030E0EBA5FCA510824BA55CA58FA598A924
:103370004817590729F48DA59EA59CA78BA706C0C1
:103380004BA55CA54F5F5F4F5CA74BA72150310950
:103390002115310531F79E012A573F4FFE01E258B2
:1033A000FF4F358324833383228331832083CE01EF
:1033B0008B539F4F97838683BE01C8010E948A1E4C
:1033C0008AB1806F8AB9239A259A2D982D984BE45B
:1033D00053E566E471E4488B598B6A8B7B8B80ECF8
:1033E00095E19B838A8382E495E19983888387E8CA
:1033F00096E19B878A8785EA96E19D878C8783EC97
:1034000096E19F878E87DF91CF911F910F91FF905B
:10341000EF9008952F923F924F925F926F927F921A
:103420008F929F92AF92BF92CF92DF92EF92FF92D4
:103430000F931F93CF93DF93CDB7DEB7C655D10956
:103440000FB6F894DEBF0FBECDBF8C014C0126EB4A
:10345000821A2EEF920A1C014AEA241A4EEF340A0D
:103460005C0184EBA81A8EEFB80A780199EAE91A90
:103470009EEFF90AD4018D919C910E94520D8F3FCD
:10348000BFEF9B0709F481C1F1012081211132C1F5
:103490008E37910509F01DC1D5014D915C91F80160
:1034A000E25BFE4F6496FFAFEEAF64974231510589
:1034B00008F4F9C080819181883B904F09F0F3C0F6
:1034C000F801EC5AFE4F8081882351F03297019029
:1034D000F081E02D309709F4E6C080E090E0E2C092
:1034E000D801FE013896CE010E962D9126952032F8
:1034F00009F420E02193E817F907B9F7D8011696E7
:103500008C91169786958F708E871796FE0131964F
:10351000CF0106962D912695203209F420E02193C3
:10352000E817F907B9F7F8013D96D8011D968C9177
:1035300086958F708F8329966FAC2997712C61E0E7
:1035400070E0808180FF19C028967FAE2897299669
:103550006FAE29972181822F90E02B969FAF8EAF7F
:103560002B97039709F46BC01F922F9381EA91E088
:103570009F938F9388E596E070C0B7E0B71520F36E
:10358000CC24C394D12CCC0EDD1E27E0729EC00C3F
:10359000D11C1124CF01019667969FAF8EAF67971C
:1035A00080E090E0272D30E06796AEADBFAD679725
:1035B0004D906796BFAFAEAF67974694B0E24B129F
:1035C00004C065961FAE659703C065964FAE6597BC
:1035D0002601480E591ED20165964FAC65971E967E
:1035E0004C92019686309105F9F637969081B7E0B6
:1035F0005B2E529ED001539EB00D1124CC24C39457
:10360000D12CCC0EDD1EAC0DBD1D892F86958F7083
:1036100054968C9397FF08C0CB0102C0880F991F66
:103620002A95E2F7682A09C0DB0102C0AA0FBB1F76
:103630002A95E2F79D0120956222739482CF8281C0
:103640002C968FAF2C97803F99F01F928F9381EA31
:1036500091E09F938F9387E196E09F938F930E94D1
:1036600064330F900F900F900F900F900F901BC02E
:10367000339642505109C8018E1B9F0B480F591FAA
:1036800060965FAF4EAF60972E96FFAFEEAF2E976E
:10369000F801EE5AFE4F0190F081E02D309719F0BD
:1036A000CE010196099581E0F801EB5AFE4F808327
:1036B0008FEF9FEF6496AEADBFAD64978D939C93F3
:1036C000F50111821082D7011C92F801E85AFE4FD1
:1036D00008C08F37910539F4F801EB5AFE4F10827C
:1036E00033961082C7CE8B31910521F481E0F10130
:1036F0008083C0CEF801EB5AFE4F2081222309F4CB
:1037000041C0D5012D913C912A34B1E03B07A8F589
:10371000A9014F5F5F4FF50151834083F801E20F2C
:10372000F31F8083D801A25BBE4F2D913C9111976E
:10373000F901E827FF27EE0FFF1FE859FF4F4591DA
:103740005491232F3327422753274D935C93D7015E
:103750002C91213049F4803F910531F432E03C93C3
:10376000F801E85AFE4F2083F701208121110AC099
:10377000039741F481E0808305C01082F801E85A84
:10378000FE4F1082D1011C9275CEF401E080F180D1
:10379000D7011C968D919C911D97892B41F449E48A
:1037A00051E065E076E08BEF95E00E94F333D701BE
:1037B0001C96ED91FC911D97C7010995892B09F481
:1037C00048C0F401E080F180D7011C968D919C9156
:1037D0001D97892B41F449E451E065E076E08BEFD9
:1037E00095E00E94F333D7011C96ED91FC911D9753
:1037F000C70109959F938F9386EA91E09F938F93DA
:1038000084E896E09F938F930E946433F401E080F4
:10381000F1800F900F900F900F900F900F90D701A5
:103820001E968D919C911F97892B41F442E551E0A2
:1038300069EE75E08CED95E00E94F333D7011E969A
:10384000ED91FC911F97C7010995F801E85AFE4FC9
:103850001082CA5ADF4F0FB6F894DEBF0FBECDBF3D
:10386000DF91CF911F910F91FF90EF90DF90CF905C
:10387000BF90AF909F908F907F906F905F904F9090
:103880003F902F900895CF92DF92EF92FF920F9387
:103890001F93CF93DF931F92CDB7DEB77C01462FE6
:1038A00082E8860F9701265B3E4F6901823010F057
:1038B0006B3149F4F601608171818BE190E04983BD
:1038C0000E941C0D4981D701A05BBE4F2C9111961F
:1038D0005C911197842F90E0FC01E227EE0FFF1F0F
:1038E000E859FF4F25913491052F10E0202731270B
:1038F0002D933C93F601608171810F90DF91CF9100
:103900001F910F91FF90EF90DF90CF900C941C0DC2
:103910002F923F924F925F926F927F928F929F92DF
:10392000AF92BF92CF92DF92EF92FF920F931F93CD
:10393000CF93DF93CDB7DEB72C970FB6F894DEBFE9
:103940000FBECDBF9C878B877B015A0128873987A3
:103950001D830C836115710541F44EE051E06AEC62
:1039600075E085EC95E00E94F33322E0A216B104E5
:1039700040F44FE051E063EB75E085EA95E00E948A
:10398000F3334B845C8480EB481A8EEF580A8FEF38
:103990009FEFF201918380836B847C84F6EB6F1A36
:1039A000FEEF7F0AF301608171818EE790E00E9453
:1039B0001C0DC12CD12CC50101979F838E83CA1485
:1039C000DB0409F468C021E029838E819F81C81639
:1039D000D90609F01982F70101900020E9F78F015B
:1039E000015011090E191F090730110510F006E0EA
:1039F00010E0C8018E0D9F1D9B838A8317018A8169
:103A00009B812816390601F1F10121911F01822EB7
:103A1000912CC4012A870E940A382A85892B51F4E7
:103A2000203241F041EF50E060E675E089E495E036
:103A30000E94F333C4010E941E38682F660F8B85E5
:103A40009C850E94431CDBCF0630110599F0812C28
:103A5000912CE6E0F0E0E01BF10B8F01801691065F
:103A600048F460E48B859C850E94431CFFEF8F1A0D
:103A70009F0AF4CF89818066F7016681660F682B03
:103A80008B859C850E94431CFFEFCF1ADF0A27E03D
:103A9000E20EF11C94CF63E08B859C850E94431C51
:103AA00060EF8B859C850E94431C08851985EC80FE
:103AB000FD80E00EF11E0E151F0541F0F801619129
:103AC0008F018B859C850E94431CF5CFF20160819C
:103AD000118160958B859C850E94431C612F6095A8
:103AE0008B859C850E94431CF20180819181883BDB
:103AF000904F41F048E251E063E975E082E795E0DC
:103B00000E94F333F301608171818EE790E02C967F
:103B10000FB6F894DEBF0FBECDBFDF91CF911F91DE
:103B20000F91FF90EF90DF90CF90BF90AF909F905C
:103B30008F907F906F905F904F903F902F900C945C
:103B40001C0DDF92EF92FF920F931F93CF93DF93A1
:103B5000EC018B01D42E7901009741F440E751E04C
:103B600067E375E083E395E00E94F33301151105E7
:103B700041F441E751E061E275E089E195E00E949E
:103B8000F33389E591E0FE019C0111922150304010
:103B9000E1F7FE01E65BFE4F118300833896F18268
:103BA000E0823296D08234978FEF9FEF91838083AB
:103BB000C25BDE4F99838883DF91CF911F910F9174
:103BC000FF90EF90DF90089564E574E00C94542129
:103BD00078940E9497330E94EE0C60E070E084E5D8
:103BE00094E00E943E0C40E855E260E070E084E51D
:103BF00094E00E94C00B86E08093C20040E050E059
:103C000060E070E08FED95E00E94751924EE3DE1D3
:103C100040E06FED75E086E894E00E94A11D64E548
:103C200074E086E894E00E941E208FB7F894C0905C
:103C30006707D0906807E0906907F0906A078FBF28
:103C4000C1E086E894E00E940A1A80910403811181
:103C50002EC084E594E00E94B20B882341F184E5F4
:103C600094E00E948E0B8093070390930803409189
:103C70000503509106039A012F5F3F4F30930603CF
:103C800020930503FA01E75FFC4F8083293431401C
:103C900010F0C09304038FB7F894C0906707D090DA
:103CA0006807E0906907F0906A078FBF1BC080919A
:103CB000050390910603892BA9F02FB7F894809102
:103CC000670790916807A0916907B0916A072FBFB5
:103CD0008C199D09AE09BF090397A105B10514F020
:103CE000C093040380910403882309F4AACF609150
:103CF00005037091060326E834E044E554E089E0CA
:103D000093E00E947626109204031092060310920C
:103D1000050397CFCF93DF93EC017093BE066093BA
:103D2000BD068630910544F04AE350E066EA76E04D
:103D30008EE996E00E94F333109280008AE180932E
:103D400081008FEC90E090938700809386008C2F09
:103D5000806480937C0087B121E030E001C0220FB5
:103D6000CA95EAF7922F9095892387B988B189235C
:103D700088B980917E00822B80937E0087E08093BB
:103D80007B008CEE80937A00DF91CF9108951F9293
:103D90000F920FB60F9211242F933F934F935F937F
:103DA0006F937F938F939F93AF93BF93EF93FF9303
:103DB00080E286BB60917800709179007695679576
:103DC0007695679560588091BD069091BE060E94D9
:103DD000E11680916C07882341F08091BD06909197
:103DE000BE060E947A18807F01C080E88BB9FF91DF
:103DF000EF91BF91AF919F918F917F916F915F9163
:103E00004F913F912F910F900FBE0F901F901895DB
:103E1000FC01608380916207811117C080914F017E
:103E2000882399F0662329F05F934F9382EE9CE0FC
:103E300004C05F934F938EEC9CE09F938F930E94FE
:103E400064330F900F900F900F9080916207811153
:103E50000CC080914F01811108C08BEC9CE09F93B6
:103E60008F930E9464330F900F9008956FEF8AE252
:103E700090E00E94573861EB71E0809120079091AB
:103E800021070C94900D8AE290E00E943F38893619
:103E900009F0C4C046E050E064E270E088E491E0DC
:103EA0000E942F3846E050E06EE170E081E491E03E
:103EB0000E942F3846E050E068E170E08AE391E02C
:103EC0000E942F3846E050E062E170E081E391E02B
:103ED0000E942F3881E190E00E943F3890E090935B
:103EE00043078093420780E190E00E943F3890E0D2
:103EF00090934107809340078FE090E00E943F3805
:103F000090E090933901809338018EE090E00E9418
:103F10003F3890E09093300180932F018DE090E046
:103F20000E943F3891E0811101C090E090935401CC
:103F30008CE090E00E943F3891E0811101C090E058
:103F4000909353018BE090E00E943F3891E0811103
:103F500001C090E0909352018AE090E00E943F38C7
:103F600091E0811101C090E09093510189E090E0CF
:103F70000E943F3891E0811101C090E09093500180
:103F800088E090E00E943F3891E0811101C090E00C
:103F900090934F0187E090E00E943F3891E08111BB
:103FA00001C090E09093620786E090E00E943F3865
:103FB00080932C0185E090E00E943F3880932B0194
:103FC00084E090E00E943F3880932A0183E090E0F3
:103FD0000E943F388093290182E090E00E943F38A0
:103FE00080932E0181E090E00E943F3880932D0164
:103FF00080E090E00E943F3891E0811101C090E0A4
:104000009093C106809161078823B9F061EB71E05C
:1040100080912007909121070C94900D8091610769
:10402000882341F065EB71E0809120079091210792
:104030000E94900D81E0809360070895CF93DF93F5
:1040400000D0CDB7DEB7909323078093220760930B
:1040500020077093210769837A830E94431F81E0C0
:10406000809361072FEF85EA9EE0215080409040C9
:10407000E1F700C000001F9281E08F931F9288E457
:104080008F938CEB91E09F938F937A817F936981DB
:104090006F930E947E0D0FB6F894DEBF0FBECDBFAA
:1040A0000F900F90DF91CF91089546E050E064E2C9
:1040B00070E088E491E00E94473846E050E06EE10D
:1040C00070E081E491E00E94473846E050E068E10A
:1040D00070E08AE391E00E94473846E050E062E1F8
:1040E00070E081E391E00E9447386091420781E1EE
:1040F00090E00E9457386091400780E190E00E9474
:104100005738609138018FE090E00E9457386091F5
:104110002F018EE090E00E945738609154018DE0AD
:1041200090E00E945738609153018CE090E00E942B
:104130005738609152018BE090E00E9457386091AF
:1041400051018AE090E00E9457386091500189E067
:1041500090E00E94573860914F0188E090E00E9403
:1041600057386091620787E090E00E94573860916D
:104170002C0186E090E00E94573860912B0185E089
:1041800090E00E94573860912A0184E090E00E94FC
:1041900057386091290183E090E00E945738609180
:1041A0002E0182E090E00E94573860912D0181E05D
:1041B00090E00E9457386091C10680E090E00E9434
:1041C000573869E68AE290E00E94573861EB71E067
:1041D00080912007909121070C94900D0F931F93CD
:1041E0009C01CA0146E0E1E4F1E0A2E5B7E00190FC
:1041F0000D924A95E1F7409140074093580746E0F9
:10420000E8E4F1E0A9E5B7E001900D924A95E1F705
:104210004091420740935F0746E0EAE3F1E0ABE4F8
:10422000B7E001900D924A95E1F740913801409333
:10423000510746E0E1E3F1E0A4E4B7E001900D921C
:104240004A95E1F740912F0140934A0747E0E2E5A4
:10425000F7E0A4E2B7E001900D924A95E1F747E05C
:10426000E9E5F7E0ABE2B7E001900D924A95E1F79E
:1042700047E0EBE4F7E0A2E3B7E001900D924A9546
:10428000E1F747E0E4E4F7E0A9E3B7E001900D923D
:104290004A95E1F78B0144E050E064E277E00E9448
:1042A000881C1F910F9108954F925F926F927F9299
:1042B0008F929F92AF92BF92CF92DF92EF92FF9236
:1042C0000F931F93CF93DF9300D000D000D0CDB7D2
:1042D000DEB78C013B012091BF063091C0062F5FF5
:1042E0003F4F3093C0062093BF06562E472C3F9376
:1042F0002F938EE991E09F938F937F926F930E940B
:104300007E0D0F900F900F900F900F900F90809157
:1043100054018823E9F080915001882329F062EE4E
:1043200071E0C3010E94900DD80116968C911F92E6
:104330008F931F930F9388EE91E09F938F937F92BB
:104340006F920E947E0D0FB6F894DEBF0FBECDBFF8
:1043500080915301882331F180915001882361F0CD
:1043600083EF91E09F938F937F926F920E947E0DD7
:104370000F900F900F900F90D8011D968C911F9267
:104380008F93C80107969F938F9388EE91E09F9338
:104390008F937F926F920E947E0D0FB6F894DEBFCE
:1043A0000FBECDBF80915201811105C08091510196
:1043B000811137C058C080915001882329F069EFDE
:1043C00071E0C3010E94900D7801FEE0EF0EF11C38
:1043D000C12CD12C480126E4820E911C88EEA82E17
:1043E00081E0B82ED4018C9190E0C816D906F4F67D
:1043F000D70116968C911F928F93FF92EF92BF92E6
:10440000AF924F925F920E947E0DBFEFCB1ADB0AF4
:10441000E7E0EE0EF11C0FB6F894DEBF0FBECDBF85
:10442000E1CF80915001882329F060E072E0C30160
:104430000E94900DF801E55BFF4F81818F93808191
:104440008F93329681818F9380818F9327E032E022
:104450003F932F937F926F920E947E0D0FB6F89438
:10446000DEBF0FBECDBF6FED71E0C3010E94900DA6
:104470008091C106882309F4EDC0F801E35BFF4F8A
:104480000190F081E02DEC30F10508F4E3C0D80193
:10449000A55BBF4F2D913C915F01A20EB31E80E042
:1044A00090E0C12CD12CAE014F5F5F4FD5016E91D2
:1044B0005D016B3769F4DA01B501FB01F190BF01D1
:1044C000FD927D01E41AF50A8E159F05B0F76C0187
:1044D00001968730910551F7C114D10409F4BAC08F
:1044E00081E090E0A1E0F901E80FF91F608170E040
:1044F000FC01E95BFE4F4081552747FD509564174D
:10450000750719F087E090E0A0E0019687309105EB
:1045100054F340E050E0F901E80FF91F60816D327B
:1045200009F4AC0101968A309105ACF341155105AF
:10453000A1F0F901E40FF51F8281609142077091AB
:104540004307803221F4818190E0C09702C090E05F
:1045500086978617970709F07DC0AA2309F47AC0C9
:104560005601FEE0AF0EB11CC5010E94E3367C018E
:1045700020E030E080E22F5F3F4FF701E20FF31FB2
:10458000808329303105B9F7B80121E030E0E0E05F
:10459000F0E0DB014D91BD01442331F0C701820FF2
:1045A000931FDC014C9331962F5F3F4F273031052D
:1045B00081F7D80116968C91882369F0EE0DFF1DC6
:1045C0009DE291838A3018F4805D828304C091E378
:1045D00092838A5D83838AE3F7018083828781E601
:1045E000838783E684878BE68587DE0112963E9675
:1045F00080E090E001962D9121938C159D05D4F3D8
:10460000FFEF22E785E5F15020408040E1F700C050
:1046100000004091220750912307B501C7010E9475
:10462000EE20C70126960FB6F894DEBF0FBECDBFB1
:10463000DF91CF911F910F91FF90EF90DF90CF907E
:10464000BF90AF909F908F907F906F905F904F90B2
:104650000C947B3726960FB6F894DEBF0FBECDBF05
:10466000DF91CF911F910F91FF90EF90DF90CF904E
:10467000BF90AF909F908F907F906F905F904F9082
:1046800008956F927F929F92AF92BF92CF92DF92E6
:10469000EF92FF920F931F93CF93DF931F92CDB7AB
:1046A000DEB75C018B016A017B0184E1E80EF11C3D
:1046B00020912C012A3098F480912B018A3078F4D3
:1046C00080912A018A3058F480912901893038F488
:1046D0007B01EBE1EE0EF11C9924939401C0912C27
:1046E000C70129830E94E3363C018DE3F3018083F7
:1046F00080912E01818780912D01838B88E0E8E1F4
:10470000F7E0D301119601900D928A95E1F789E0C7
:10471000EFE0F7E0D3011A9601900D928A95E1F748
:104720002981911003C0C301449617C080E5F301AD
:10473000848B88E4858B87E4868B205D278B809132
:104740002B01805D808F80912A01805D818F809117
:104750002901805D828FC3014B960115110521F05F
:10476000A801B5010E942638A601B701C3010E9425
:10477000EE20C3010F90DF91CF911F910F91FF9019
:10478000EF90DF90CF90BF90AF909F907F906F9011
:104790000C947B378F929F92AF92BF92CF92DF9211
:1047A000EF92FF920F931F93CF93DF935C016A0107
:1047B0008B016434710510F003E410E078012FE000
:1047C000E20EF11CC7010E94E336EC018AE3888304
:1047D00087E090E020E030E00197009769F0F90170
:1047E000E75FF84F40814423B9F32F5F3F4FFE014D
:1047F000E20FF31F4083F0CF8091270190912801B1
:104800008F3F4FEF940779F0FE01E20FF31F4DE267
:1048100041838A3091054CF42E5F3F4FFE01E20F39
:10482000F31F805D808380E209C091E392832D5F56
:104830003F4FFE01E20FF31F8A5DF4CF29303105AF
:104840003CF42F5F3F4FFE01E20FF31F8083F6CF52
:10485000FE01E20FF31F8AE381830115110581F048
:10486000A801B501CE010B960E942638A801B5011A
:1048700084EC96E00E9426381093C3060093C2068B
:1048800080910707909108070196883E23E09207E0
:104890002CF4909308078093070704C01092080730
:1048A00010920707FE01E00FF11F8BE7838700914D
:1048B0000707109108079AE0892E912CC801B401CE
:1048C0000E9459369C0144E6A42EB12CC801B501C2
:1048D0000E945936821B930BB4010E945936AB01DA
:1048E000C801861B970B821B930BB5010E9459369A
:1048F000605D6487405D4587205D2687A601B7011E
:10490000CE010E94EE20CE01DF91CF911F910F9139
:10491000FF90EF90DF90CF90BF90AF909F908F90DF
:104920000C947B37209107073091080721503109FB
:1049300030930807209307076091C2067091C30661
:10494000AC0184EC96E00C94CA231F9281E08F9313
:104950001F9288E48F938EEA9CE09F938F930E942E
:1049600064338AE89CE09F938F930E9464338AE7C4
:104970009CE09F938F930E946433809143078F93B1
:10498000809142078F9388E491E09F938F9387E60D
:104990009CE09F938F930E946433809141078F9393
:1049A000809140078F9381E491E09F938F9381E5FD
:1049B0009CE09F938F930E946433809139018F9381
:1049C000809138018F938AE391E09F938F9381E4E4
:1049D0009CE09F938F930E946433809130018F936A
:1049E00080912F018F9381E391E09F938F9381E3D7
:1049F0009CE09F938F930E9464338DB79EB78296FD
:104A00000FB6F8949EBF0FBE8DBF8091C10688235C
:104A100019F08AE19CE002C082E09CE09F938F93B2
:104A20000E9464330F900F9080912C018A3061F0C6
:104A30001F928F9387EF9BE09F938F930E94643325
:104A40000F900F900F900F9080912B018A3061F0A2
:104A50001F928F938BEE9BE09F938F930E94643302
:104A60000F900F900F900F9080912A018A3061F083
:104A70001F928F9381EE9BE09F938F930E946433EC
:104A80000F900F900F900F90809129018A3061F064
:104A90001F928F9380ED9BE09F938F930E946433CE
:104AA0000F900F900F900F9080912E018C3541F454
:104AB00087EB9BE09F938F930E9464330F900F903E
:104AC00080912E018F3241F48FE99BE09F938F9369
:104AD0000E9464330F900F9020912D01822F99270F
:104AE00087FD90959F932F9383E99BE09F938F93EE
:104AF0000E9464330F900F900F900F9008958FE6EF
:104B00009BE09F938F930E9464338DE59BE09F937E
:104B10008F930E94643382E49BE09F938F930E9463
:104B2000643389E09BE09F938F930E9464338BEE04
:104B30009AE09F938F930E9464338EEC9AE09F9348
:104B40008F930E9464338AEA9AE09F938F930E9426
:104B500064338CE89AE09F938F930E9464338DE6D0
:104B60009AE09F938F930E94643384E59AE09F9329
:104B70008F930E94643384E39AE09F938F930E9403
:104B800064338AE19AE09F938F930E9464338FEF9E
:104B900099E09F938F930E9464338CEC99E09F93EC
:104BA0008F930E94643388E999E09F938F930E94CA
:104BB00064338BE799E09F938F930E9464338DB7A2
:104BC0009EB780960FB6F8949EBF0FBE8DBF88E546
:104BD00099E09F938F930E94643387E399E09F93BA
:104BE0008F930E9464338FE099E09F938F930E948C
:104BF000643386EF98E09F938F930E94643381EC37
:104C000098E09F938F930E94643387E998E09F9385
:104C10008F930E94643381E798E09F938F930E9463
:104C2000643383E598E09F938F930E9464338AE214
:104C300098E09F938F930E9464338EE098E09F9357
:104C40008F930E94643382EF97E09F938F930E942B
:104C5000643385ED97E09F938F930E94643388EBD4
:104C600097E09F938F930E9464338AE997E09F9324
:104C70008F930E9464338BE797E09F938F930E94FA
:104C800064338CE597E09F938F930E9464338DB7D4
:104C90009EB780960FB6F8949EBF0FBE8DBF8EE371
:104CA00097E09F938F930E94643380E297E09F93F5
:104CB0008F930E94643381E097E09F938F930E94CB
:104CC000643382EE96E09F938F930E9464338EEB61
:104CD00096E09F938F930E9464338DB79EB70A9698
:104CE0000FB6F8949EBF0FBE8DBF08950F931F930C
:104CF000CF93DF93EC01FA01A9016115710509F465
:104D0000CCC48881813259F46230710508F48CC4B6
:104D100061507109CE0101960E94EE2008C08034D6
:104D200049F461507109CE0101960E94412361EB63
:104D300071E07CC4833239F461507109CE0101966F
:104D40000E94CA23F4CF8F3331F4DF91CF911F91AA
:104D50000F910C947F25982F9F7D983431F4DF912B
:104D6000CF911F910F910C94A524833531F4DF91DD
:104D7000CF911F910F910C945520833431F4DF9122
:104D8000CF911F910F910C94361F8C3431F4DF9129
:104D9000CF911F910F910C94431F833671F56430AE
:104DA000710508F441C4E8E4F1E081E090E09C0181
:104DB0002150310986179707A9F08730910581F0B6
:104DC000DE01A80FB91F2C91222331F02A3021F0E7
:104DD0002D3011F0208301C0108201963196E7CF6B
:104DE00026E030E02630310509F4A1CFF901E85B77
:104DF000FE4F10822F5F3F4FF5CF843671F5643040
:104E0000710508F411C4E1E4F1E081E090E09C0157
:104E10002150310986179707A9F08730910581F055
:104E2000DE01A80FB91F2C91222331F02A3021F086
:104E30002D3011F0208301C0108201963196E7CF0A
:104E400026E030E02630310509F471CFF901EF5B3F
:104E5000FE4F10822F5F3F4FF5CF813371F56230E7
:104E6000710508F4E1C3EAE3F1E081E090E09C0120
:104E70002150310986179707A9F08730910581F0F5
:104E8000DE01A80FB91F2C91222331F02A3021F026
:104E90002D3011F0208301C0108201963196E7CFAA
:104EA00026E030E02630310509F441CFF901E65C17
:104EB000FE4F10822F5F3F4FF5CF823371F5623086
:104EC000710508F4B1C3E1E3F1E081E090E09C01F9
:104ED0002150310986179707A9F08730910581F095
:104EE000DE01A80FB91F2C91222331F02A3021F0C6
:104EF0002D3011F0208301C0108201963196E7CF4A
:104F000026E030E02630310509F411CFF901EF5CDD
:104F1000FE4F10822F5F3F4FF5CF833709F076C0E9
:104F20006330710508F480C38B0101501109898138
:104F30008336D1F40230110541F08B819FEC980F3C
:104F4000993018F490E0869703C08A8190E0C0976A
:104F5000909343078093420761EB71E080912007B3
:104F6000909121070E94900D89818436D1F40230FE
:104F7000110541F08B819FEC980F993018F490E067
:104F8000869703C08A8190E0C097909341078093F1
:104F9000400761EB71E080912007909121070E940A
:104FA000900D89818133D1F48B819FEC980F9930DA
:104FB000A8F40230110519F090E0869703C08A81A9
:104FC00090E0C097909339018093380161EB71E0D4
:104FD00080912007909121070E94900D8981823352
:104FE00009F05BC38B819FEC980F993008F055C393
:104FF0000230110519F090E0869703C08A8190E095
:10500000C0979093300180932F0191CE803709F0A3
:105010004FC06330710508F407C38981833759F4A1
:1050200061E08A81813309F060E04CE052E084E580
:1050300091E00E94081F8981843659F461E08A81D9
:10504000813309F060E040E152E083E591E00E94A5
:10505000081F8981803759F461E08A81813309F022
:1050600060E044E152E082E591E00E94081F8981FE
:105070008D3659F461E08A81813309F060E049E1BD
:1050800052E081E591E00E94081F8981893609F08C
:1050900004C361E08A81813309F060E04EE152E0AF
:1050A00080E591E0DF91CF911F910F910C94081F43
:1050B0008637C1F48981813331F481E080934F01D7
:1050C00083E292E004C010924F0189E392E09F9343
:1050D0008F93FF93EF930E947E0D0F900F900F9090
:1050E0000F90DBC2863581F48981813341F481E000
:1050F0008093620710924F0180E592E0E8CF109212
:10510000620785E692E0E3CF8C3609F05BC163303D
:10511000710508F489C289818C3609F064C0615038
:1051200071098A81813671F56A30710508F4B5C25A
:1051300088E0FE013396A8E1B7E001900D928A95D0
:10514000E1F780916207811112C080914F0188239D
:1051500071F088E197E09F938F938BE49EE09F939B
:105160008F930E9464330F900F900F900F90809157
:105170006207811192C280914F0181118EC288E431
:105180009EE04BC28F3609F088C26B30710508F47F
:1051900084C289E0FE013396AFE0B7E001900D9242
:1051A0008A95E1F780916207811112C080914F01C9
:1051B000882371F08FE097E09F938F9380E39EE0C8
:1051C0009F938F930E9464330F900F900F900F90D6
:1051D00080916207811161C280914F0181115DC28E
:1051E0008DE29EE01AC2803749F58A8180538A3069
:1051F00008F053C280932C0190916207911113C063
:1052000090914F01992379F08802C00111249F9356
:105210008F938BE19EE09F938F930E9464330F9056
:105220000F900F900F9080916207811136C280918C
:105230004F01811132C288E19EE0EFC18836D9F575
:105240008A8180538A3008F028C280932B01909184
:105250006207911125C090914F01992309F1A1E0B6
:10526000B0E002C0AA0FBB1F8A95E2F728EE33E038
:105270000E94AE3628E431E040E050E00E948F36D4
:105280005F934F933F932F9388EF9DE09F938F936E
:105290000E9464330F900F900F900F900F900F901B
:1052A000809162078111F9C180914F018111F5C18F
:1052B00085EF9DE0B2C1873651F52A8120532A300F
:1052C00008F0EBC120932A0180916207811114C07C
:1052D00080914F01882381F0822F992787FD909537
:1052E0009F932F9383EE9DE09F938F930E9464334F
:1052F0000F900F900F900F90809162078111CDC198
:1053000080914F018111C9C180EE9DE086C1843634
:10531000E9F58A8180538A3008F0BFC1893009F4E9
:1053200088E0809329018091620781110CC08091EF
:105330004F01811108C08DED9DE09F938F930E94D6
:1053400064330F900F90809162078111A6C1809104
:105350004F01882309F4A1C180912901811108C05E
:105360008CEC9DE09F938F930E9464330F900F907D
:1053700080912901882309F490C12DE2829FC00108
:1053800011249F938F938AEB9DE017C0833709F018
:1053900057C12A8120932D018091620781117DC11F
:1053A00080914F01882309F478C1822F992787FDC6
:1053B00090959F932F9388EA9DE09F938F930E94EF
:1053C00064338BCE8D3609F02FC16230710508F43D
:1053D0002BC1CB0101972981233609F064C00197C5
:1053E00009F45BC1E9E0F7E022966250710980E0C0
:1053F00090E08617970781F08630910569F0299132
:10540000222331F02A3021F02D3011F0208301C009
:10541000108201963196EDCF8630910531F0FC0176
:10542000E75FF84F10820196F7CF809162078111F4
:105430002FC080914F01882359F189E097E09F9315
:105440008F9380E69DE09F938F930E9464338091B9
:105450002701909128010F900F900F900F908F3F90
:105460002FEF920769F09F938F938BE59DE09F93B9
:105470008F930E9464330F900F900F900F9008C08D
:1054800089E59DE09F938F930E9464330F900F9066
:1054900080914F01811101C1809162078111FDC08E
:1054A00086E59DE0BAC0233709F05BC081309105E5
:1054B00009F4F3C0029721F08B8190E0869703C036
:1054C0008A8190E0C0979093280180932701809172
:1054D000270190912801409730F08FEF9FEF909334
:1054E0002801809327018091620781112FC080914C
:1054F0004F01882359F189E097E09F938F9387E4C8
:105500009DE09F938F930E94643380912701909137
:1055100028010F900F900F900F908F3F2FEF920761
:1055200069F09F938F9382E49DE09F938F930E94F5
:1055300064330F900F900F900F9008C080E49DE0AF
:105540009F938F930E9464330F900F9080914F012F
:105550008111A3C08091620781119FC08DE39DE0FE
:105560005CC02237F1F4CA010E9492248091620744
:1055700081110CC080914F01882341F08BE29DE0A6
:105580009F938F930E9464330F900F9080914F01EF
:10559000811183C08091620781117FC088E29DE004
:1055A0003CC0213609F079C02A8190916207809130
:1055B0004F012133D1F421E02093C10691110AC09B
:1055C000882341F082E19DE09F938F930E94643392
:1055D0000F900F9080914F0181115FC08091620701
:1055E00081115BC08FE09DE018C01092C10691113F
:1055F0000AC0882341F088EF9CE09F938F930E941C
:1056000064330F900F9080914F01811146C08091BB
:105610006207811142C085EF9CE09F938F930E94A7
:1056200064330F900F9039C065EB71E080912007D3
:1056300090912107DF91CF911F910F910C94900DC4
:10564000843759F52A819091620780914F01213664
:1056500051F42CE520932E01911114C0882391F070
:105660008DE89DE009C02FE220932E0191110AC020
:10567000882341F082E79DE09F938F930E946433DB
:105680000F900F9080914F01811107C080916207A8
:10569000811103C08FE69DE0C0CFDF91CF911F91B4
:1056A0000F9108952F923F924F925F926F927F9247
:1056B0008F929F92AF92BF92CF92DF92EF92FF9222
:1056C0000F931F93CF93DF93CDB7DEB7C45AD109A1
:1056D0000FB6F894DEBF0FBECDBFC856DF4F99831B
:1056E0008883C859D040C656DF4F79836883CA592A
:1056F000D040C456DF4F59834883CC59D04059011C
:10570000C257DF4F19821882CE58D0409E012F5FBA
:105710003F4FC957DF4F39832883C758D040AE0168
:105720004A575F4FC757DF4F59834883C958D04006
:10573000C856DF4F08811981C859D0400F5F1F4FED
:10574000C856DF4FE881F981C859D040849185322D
:1057500091F1882309F448C7C456DF4F68817981E5
:10576000CC59D040C656DF4FE881F981CA59D040A4
:105770000995C257DF4FE880F980CE58D040FFEF3F
:10578000EF1AFF0AC557DF4FB982A882CB58D04025
:10579000C856DF4F19830883C859D040C257DF4F1E
:1057A000F982E882CE58D040C557DF4FA880B98033
:1057B000CB58D040BDCFF8018491853259F5C856F9
:1057C000DF4F28813981C859D0402E5F3F4FC856DE
:1057D000DF4F39832883C859D040C456DF4F6881D2
:1057E0007981CC59D040C656DF4FE881F981CA593A
:1057F000D0400995C257DF4FE880F980CE58D0409D
:10580000FFEFEF1AFF0AC557DF4FB982A882CB58C6
:10581000D040C4CFC256DF4F1882CE59D040C357B4
:10582000DF4F1882CD58D040C057DF4F1882C05983
:10583000D040CF56DF4F1882C159D040F801249193
:10584000C80101962B3209F458C060F42032E9F007
:10585000233209F05AC0F1E0C357DF4FF883CD5827
:10586000D04051C02D3251F0203309F04EC021E01C
:10587000C256DF4F2883CE59D04045C0F1E0C05713
:10588000DF4FF883C059D0403EC0232D2C7F322EED
:10589000CF56DF4F3881C159D040332ACE56DF4F23
:1058A0004881C259D04040FB32F8C057DF4F588181
:1058B000C059D04050FB33F820FA34F8CD56DF4FB2
:1058C000A881C359D040A0FB35F8C357DF4FB8813A
:1058D000CD58D040B0FB36F8CC56DF4FE881C459E4
:1058E000D040E0FB37F8232D237069F441E0CF5618
:1058F000DF4F4883C159D04006C031E0CF56DF4F5B
:105900003883C159D0408C0199CFC357DF4F58819C
:10591000CD58D040C056DF4F5883C05AD040F80110
:1059200024912A3221F0612C712C3AE025C0950196
:105930002E5F3F4FD5016D907C9077FE09C071942A
:1059400061947108B1E0C057DF4FB883C059D040AF
:105950008C01590116C02A33A0F40F5F1F4FFC01C0
:105960008491A301349F3001359F700C112450E3C2
:10597000651A7108680E711CC801F8012491203362
:1059800050F7C057DF4FF881C059D040FF2329F0AE
:10599000C256DF4F1882CE59D040F80184918E3222
:1059A00049F5319684918A3229F08F01412C512C8E
:1059B0003AE01AC0D5014D905C900E5F1F4FF50183
:1059C00032965F011AC02A33C0F40F5F1F4FFC01EB
:1059D0008491A201349F2001359F500C112450E383
:1059E000451A5108480E511CC801F8012491203372
:1059F00050F703C044244A94542CF8012491C80160
:105A00000196283699F018F42C3439F017C02C364A
:105A100021F02A3799F4212C02C0222423948C01EE
:105A2000CD56DF4F1882C359D0400EC08C01F1E033
:105A3000CD56DF4FF883C359D04005C0CD56DF4F58
:105A40001882C359D040212C98012F5F3F4FC85670
:105A5000DF4F39832883C859D040F801D490C95604
:105A6000DF4FD882C759D040F5E6DF1609F402C2ED
:105A7000FD15ECF023E5D21609F453C02D1564F0A2
:105A800035E4D31609F4F6C147E4D41609F4E1C1AC
:105A9000DD2009F46FC42AC053E6D51671F15D15F7
:105AA0000CF4C6C088E5D81609F48DC01FC090E775
:105AB000D91609F471C09D1564F0A7E6DA1609F449
:105AC000C8C1DA160CF4D1C1B9E6DB1609F4B0C0CE
:105AD0000DC0E5E7DE1609F476C0F8E7DF1609F435
