:107000000C943D380C945A380C945A380C945A38D5
:107010000C945A380C945A380C945A380C945A38A8
:107020000C945A380C945A380C945A380C945A3898
:107030000C945A380C945A380C945A380C945A3888
:107040000C945A380C945A380C945A380C945A3878
:107050000C945A380C945A380C945A380C945A3868
:107060000C945A380C945A3858426A01733C7A3C52
:107070007C3CAD3C0000953CBE3C11241FBECFEFD4
:10708000D8E0DEBFCDBF11E0A0E0B1E0EEE0FAE76E
:1070900002C005900D92A230B107D9F721E0A2E01D
:1070A000B1E001C01D92A238B207E1F70E94353A63
:1070B0000C94053D0C9400388627682F629568274C
:1070C000062E669566956025062E66956025677086
:1070D000082E892F669507946795902D862706942C
:1070E0006795902586270895909100019230F0F7DA
:1070F0008091C00087FFFACF81E0809300018091EA
:10710000C600089590910001923058F48093C60013
:107110008091C00086FFFCCF8091C0008064809386
:10712000C00008950E9474388F930E9474389F9114
:10713000882F0895AF92BF92CF92DF92EF92FF9285
:107140000F931F93CF93DF931F92CDB7DEB77C01D0
:107150005A0142E0C42E41E0D42E00E010E00E15AA
:107160001F0528F469830E947438698101C08FEF7C
:10717000F60181936F010F5F1F4F0038110579F7FA
:107180006534B1F4F50160817181A70182E091E07D
:107190000E94ED3CF50100811181228133810E0DA9
:1071A0001F1D211D311D00831183228333831EC0C7
:1071B0006634F1F4F50180819181A281B381F69466
:1071C000E794AC01BD014E0D5F1D611D711D408333
:1071D000518362837383BC01CD01660F771F881FC3
:1071E000991F21E042E051E00E94003C8DE001C087
:1071F0008FE30F90DF91CF911F910F91FF90EF9050
:10720000DF90CF90BF90AF900895EF92FF920F93D1
:107210001F93CF93DF937C01EA016534B1F4688159
:107220007981AC0182E091E00E94C33C8881998120
:10723000AA81BB818E0D9F1DA11DB11D88839983DD
:10724000AA83BB83C2E0D1E032C06634D1F5888125
:107250009981AA81BB81880F991FAA1FBB1F8883B0
:107260009983AA83BB83A2E0B1E0C7018E5F9E4FE2
:10727000E881F981E491ED9307B600FCFDCF088128
:1072800019812A813B810F5F1F4F2F4F3F4F08838A
:1072900019832A833B83A817B90751F73695279599
:1072A00017950795088319832A833B83CBCFCE019B
:1072B000825091408E159F0524F489910E94823856
:1072C000F6CFDF91CF911F910F91FF90EF9008952E
:1072D0008F929F92AF92BF92CF92DF92EF92FF92E6
:1072E0000F931F93CF93DF936B017C0149015A01E8
:1072F00000E810E0C0E0D0E081149104A104B104E2
:1073000001F10038110569F4B701A60182E091E0AE
:107310000E94F13B80E8C80ED11CE11CF11C00E08A
:1073200010E0F801EE5FFE4F6081CE010E945C38F4
:10733000EC010F5F1F4F81E0881A9108A108B10886
:10734000DBCFCE01DF91CF911F910F91FF90EF9096
:10735000DF90CF90BF90AF909F908F900895CF9285
:10736000DF92EF92FF92CF93DF9340E85FE660E019
:1073700070E082E091E00E94F13B80917C018835D1
:1073800009F06CC080917D01823409F067C0809162
:107390007E01893409F062C080917F01863409F052
:1073A0005DC0E0908001F12CFE2CEE2480918101E3
:1073B000E82A2AEF37E340E050E060E078E380E03D
:1073C00090E00E946839C6E0D0E06FEF0E945C3820
:1073D00021972097D1F7E816F90641F0DF91CF9178
:1073E000FF90EF90DF90CF900C94953CC12CD12C66
:1073F0007601D0E2CFEF85B18D2785B9B701A6011F
:10740000585C6F4F7F4F82E091E00E94F13B80E833
:10741000C81687E3D806E104F10499F021E042E0C0
:1074200051E0C701B6010E94003C80E8C80ED11CA3
:10743000E11CF11CC11488E3D806E104F104D9F67B
:10744000CDCFC0937C01C0937D01C0937E01C093DA
:107450007F01C0938001C0938101E0CFDF91CF9184
:10746000FF90EF90DF90CF900895AF92BF92DF92A0
:10747000EF92FF920F931F93CF93DF9300D000D032
:10748000CDB7DEB719821A821B821C8210920001CE
:10749000259A2D9A0E94573C589A14BE88E10FB63F
:1074A000F89480936000109260000FBE36E080EE8A
:1074B00093E9A4E0B0E040E251E00097A105B105F6
:1074C00021F00197A109B10908C085B1842785B9C8
:1074D000315080EE93E9A4E0B0E02091C00027FF96
:1074E00004C05093000121E001C020E0A8952223B0
:1074F00051F021E000E010E040E2F42EEE24E394AD
:1075000055E0D52E11C03111D8CFF4CF803559F1C7
:107510008C3449F1853409F0B7C08DE00E9482387F
:1075200020E007B600FCFDCF222309F42DC185B170
:107530008F2585B90E947438813611F489E520C100
:10754000813429F40E949238A0E0B0E008C0883469
:1075500061F40E947438A82F0E949238BB27898357
:107560009A83AB83BC838DE00BC1853629F40E94DE
:10757000DD3B0E943F3CF7CF823641F489E50E9413
:10758000823880E00E94823880E8FAC0823469F450
:107590000E9492388C010E947438AE014F5F5F4F99
:1075A000682FC8010E949A38EBC0873669F40E94A0
:1075B00092388C010E947438AE014F5F5F4F682F84
:1075C000C8010E940539DEC0823559F4E981FA818B
:1075D000EE0FFF1FA590B4908B2D0E9482388A2D4C
:1075E00045C0833629F40E947438082F10E0BBCFC1
:1075F000833481F40E947438182B89819A81AB817D
:10760000BC81FC01EE0FFF1F0801E0925700E895D6
:10761000112421C08D3691F489819A81AB81BC817E
:10762000811528E39207A105B10508F0A8C0FC0167
:10763000EE0FFF1FD0925700E89595CF843479F470
:107640000E947438682F89819A810E94F73C898151
:107650009A81AB81BC810196A11DB11D80CF84367A
:1076600009F054CF89819A810E94D33C0E948238CC
:1076700089819A81AB81BC810196A11DB11D89834D
:107680009A83AB83BC837EC0803711F483E578C0D6
:10769000843729F48BE70E94823880E071C098E833
:1076A000980F923010F0843519F40E9474385BCF33
:1076B0008335A1F488E50E94823882E40E948238F2
:1076C0008FE60E9482388FE60E94823884E70E940B
:1076D00082388BE20E9482388BE252C0863529F4D0
:1076E00081E30E94823887E34BC0833741F48FE007
:1076F0000E94823885E90E9482388EE141C0883636
:10770000E1F50E947438863421F168F4813431F156
:107710008234D9F420E030E140E050E060E070E7EE
:1077200080E090E022C0813659F0843771F420E087
:1077300038E340E050E060E078E380E090E015C09E
:1077400020E038E340E050E00DC08FE30E94823833
:10775000EECE20E030E840E050E004C020E030E72A
:1077600040E050E060E070E0CB010E946839B82E44
:10777000892F0E9482388B2D03C08B3119F08FE343
:107780000E94823821E0CDCE0E94AF390E94673C32
:10779000589825982D980C94000080E090E00F9068
:1077A0000F900F900F90DF91CF911F910F91FF904D
:1077B000EF90DF90BF90AF900895E0E0F0E083E0BD
:1077C00080935700E89507B600FCFDCFE058FF4FC7
:1077D000E11590E7F907A1F781E180935700E8955B
:1077E000089520E030E0F901E40FF51FE491DC0199
:1077F000ED93CD012F5F3F4F20383105A1F708955C
:107800000F931F93CF93DF93F999FECF211105C0FA
:1078100020E030E0EB0111E009C023E0FB01209300
:107820005700E89507B600FCFDCFF2CFDA01A20FB2
:10783000B31F0C91F901E60FF71F1196AC91B0E060
:10784000BA2FAA27A00FB11D0D0110935700E8957C
:1078500011242E5F3F4F2038310541F785E0FE01AE
:1078600080935700E89507B600FCFDCF81E1809337
:107870005700E895DF91CF911F910F910895CF9315
:10788000DF93E3E0F0E089E080935700E491E3FFC9
:107890000BC0C0E0D0E06FEFCE010E94DB3C219630
:1078A000CF3F83E0D807B9F7DF91CF91089580E10A
:1078B00090E09093C5008093C40082E08093C00064
:1078C00088E18093C10086E08093C2000895109201
:1078D000C0001092C10086E08093C2001092C500E3
:1078E0001092C400089527E031E0FC013183208329
:1078F00080E0089582E008952FB7613030E7730784
:107900008105910580F4F89433E0FB013093570032
:10791000E89507B600FCFDCF81E180935700E8951C
:107920002FBF80E0089583E008958FB7F894E0E0DA
:10793000F8E393E090935700E89507B600FCFDCF7D
:10794000E058FF4FE11520E7F207A1F791E190938E
:107950005700E8958FBF80E00895CF93CFB761308F
:1079600030E773078105910530F4F8940E94003CDC
:10797000CFBF80E001C083E0CF910895785C8F4F46
:107980009F4F0C94AD3CDC01CB01FC01F999FECF7B
:1079900006C0F2BDE1BDF89A319600B40D92415097
:1079A0005040B8F70895F999FECF92BD81BDF89A7D
:1079B000992780B50895262FF999FECF92BD81BDF4
:1079C000F89A019700B4021639F01FBA20BD0FB61D
:1079D000F894FA9AF99A0FBE0895DC01CB0103C01E
:1079E0002D910E94F83C41505040D0F70895262F29
:1079F000F999FECF1FBA92BD81BD20BD0FB6F89494
:0E7A0000FA9AF99A0FBE01960895F894FFCFF6
:027A0E00010075
:040000030000700089
:00000001FF
